:020000040800F2
:100000008817002013000008FD3B0008FD3B000896
:10001000704772B6134880F30988FFF7F9FF12485A
:100020001249134A91423EBF50F8043B41F8043B49
:10003000F8E71049104A4FF0000091423CBF41F8E8
:10004000040BFAE7022080F31488BFF36F8F00F0EF
:10005000FDFB62B64FF000004FF0000103F002F923
:1000600000BFFDE7881B00200846000800000020B4
:100070000C0200200C0200208813002025733A2077
:10008000756E68616E646C65642049525120256C00
:10009000750A000045525200697271203C204E558D
:1000A0004D5F494E54455252555054530000000084
:1000B000626572746F732F6370752F636F727465EE
:1000C000782D6D332F6472762F6972715F636D3393
:1000D0002E6300000000000018ED00E01CED00E0C1
:1000E00020ED00E000E400E004E400E008E400E0CB
:1000F0000CE400E010E400E014E400E018E400E0A8
:100100001CE400E020E400E024E400E028E400E057
:100110002CE400E030E400E034E400E00000891169
:1001200012239B322446AD573665BF74488CC19D5F
:100130005AAFD3BE6CCAE5DB7EE9F7F8811008013F
:1001400093331A22A5562C47B7753E64C99C408D3F
:10015000DBBF52AEEDDA64CBFFF976E802218B30DB
:10016000100299132667AF763444BD554AADC3BC1F
:10017000588ED19F6EEBE7FA7CC8F5D983310A20FF
:1001800091121803A7772E66B5543C45CBBD42ACFF
:10019000D99E508FEFFB66EAFDD874C904428D5397
:1001A00016619F702004A9153227BB364CCEC5DFDF
:1001B0005EEDD7FC6888E1997AABF3BA85520C43BF
:1001C00097711E60A1142805B3373A26CDDE44CFBF
:1001D000DFFD56ECE9986089FBBB72AA06638F725B
:1001E00014409D512225AB343006B9174EEFC7FE9F
:1001F0005CCCD5DD6AA9E3B8788AF19B87730E627F
:1002000095501C41A3352A24B1163807CFFF46EE7E
:10021000DDDC54CDEBB962A8F99A708B0884819526
:100220001AA793B62CC2A5D33EE1B7F04008C9196E
:10023000522BDB3A644EED5F766DFF7C899400852E
:100240009BB712A6ADD224C3BFF136E0C11848094E
:10025000D33B5A2AE55E6C4FF77D7E6C0AA583B4CA
:10026000188691972EE3A7F23CC0B5D14229CB382E
:10027000500AD91B666FEF7E744CFD5D8BB502A4EE
:1002800099961087AFF326E2BDD034C1C3394A280E
:10029000D11A580BE77F6E6EF55C7C4D0CC685D786
:1002A0001EE597F42880A1913AA3B3B2444ACD5BEE
:1002B0005669DF78600CE91D722FFB3E8DD604C7AE
:1002C0009FF516E4A9902081BBB332A2C55A4C4BCE
:1002D000D7795E68E11C680DF33F7A2E0EE787F64A
:1002E0001CC495D52AA1A3B03882B193466BCF7AAE
:1002F0005448DD59622DEB3C700EF91F8FF706E66E
:100300009DD414C5ABB122A0B9923083C77B4E6A8D
:10031000D5585C49E33D6A2CF11E780F0008014076
:100320000004000000020000040000000040000083
:100330000008014008000000040000000400000064
:1003400000000200000C0140000800000004000052
:1003500008000000000004003000000062657274B4
:100360006F732F6370752F636F727465782D6D33A3
:100370002F6472762F7365725F73746D33322E63E0
:1003800000000000706F7274203E3D203020262651
:1003900020706F7274203C205345525F434E5400CE
:1003A000B11000086D0B0008D10E0008550F0008B1
:1003B000E10C0008690B000885100008A10B00087B
:1003C000C50E0008490F0008750C0008690B0008ED
:1003D00059100008D50B0008B90E00083D0F0008A1
:1003E000090C0008690B000866642D3E5F74797083
:1003F00065203D3D204B46545F53455249414C00DA
:10040000626572746F732F6472762F7365722E68D3
:1004100000000000706F72742D3E69735F6F70652D
:100420006E000000626572746F732F6472762F73B2
:1004300065722E6300000000756E6974203C2063B5
:100440006F756E746F66287365725F68616E646C39
:10045000657329002166642D3E69735F6F70656E58
:100460000000000066642D3E68772D3E747862754A
:10047000666665720000000066642D3E68772D3E5A
:1004800072786275666665720000000073697A654D
:10049000203E203100000000626572746F732F737C
:1004A00074727563742F6669666F6275662E680074
:1004B00074696D65722D3E6D6167696320213D2011
:1004C00054494D45525F4D414749435F414354496B
:1004D00056450000626572746F732F6472762F74D4
:1004E000696D65722E6300002674696D65722D3E1C
:1004F0006C696E6B00000000266E6F64652D3E6CAB
:10050000696E6B004952515F454E41424C4544284B
:10051000290000002174696D65725F696E697469F4
:10052000616C697A6564000066642D3E666C757363
:1005300068000000626572746F732F696F2F6B66BD
:10054000696C652E6800000066642D3E7365656BFE
:1005500000000000626572746F732F696F2F6B6605
:10056000696C652E6300000066642D3E77726974C5
:100570006500000066642D3E726561640000000045
:1005800066642D3E636C65617265727200000000E6
:10059000666400006275665F706F696E74657220D4
:1005A0003E3D206275660000626572746F732F6D48
:1005B000776172652F666F726D617477722E63005A
:1005C00030313233343536373839616263646566C9
:1005D0003031323334353637383941424344454679
:1005E000808183848687898A8C8E8F919294959757
:1005F000989A9B9D9EA0A2A3A5A6A7A9AAACADAFC1
:10060000B0B2B3B5B6B7B9BABCBDBEC0C1C2C4C53D
:10061000C6C8C9CACBCDCECFD0D2D3D4D5D6D7D9E0
:10062000DADBDCDDDEDFE0E1E2E3E4E5E6E7E8E9B2
:10063000EAEAEBECEDEEEEEFF0F1F1F2F3F3F4F5C4
:10064000F5F6F6F7F8F8F9F9FAFAFAFBFBFCFCFC18
:10065000FDFDFDFDFEFEFEFEFEFFFFFFFFFFFFFFB7
:1006600066642D3E5F74797065203D3D204B465495
:100670005F4146534B000000626572746F732F6ECA
:1006800065742F6166736B2E6800000074696D6578
:10069000725F696E697469616C697A6564000000F3
:1006A000626572746F732F6E65742F6166736B2E43
:1006B00063000000252E3673000000002D25640025
:1006C00066642D3E6572726F7200000025733A20D9
:1006D0004368616E6E656C206572726F72205B2577
:1006E0003034785D0A00000070617468000000001A
:1006F000626572746F732F6E65742F617832352E58
:1007000063000000706174685F6C656E203E3D2080
:10071000320000006973616C6E756D286329207C5E
:100720007C2063203D3D2027202700006374782D26
:100730003E6372635F6F7574203D3D2041583235D2
:100740005F4352435F434F52524543540000000001
:100750003A252E2A730A0000637478006368616E7C
:100760006E656C0025733A200D0A3D3D20426552AE
:10077000544F5320544E430D0A000000494E464F3B
:100780000000000025733A203D3D205374617274CF
:10079000696E672E0D0A00000A0A2A2A2A2042657D
:1007A00052544F5320444247205354415254202A1C
:1007B0002A2A0A00417373657274696F6E2066613C
:1007C000696C65643A200000257328290A0000003E
:1007D000257328293A200000496E76616C696420EF
:1007E0007074723A20000000203D20307825700A95
:1007F0000000000057616C6C2062726F6B656E3A8E
:10080000200000005B25645D2028307825702920B9
:100810003D203078256C780A0000000044756D702A
:10082000696E672062756666657220617420616416
:100830006472205B25705D2C20257A7520627974A6
:1008400065730000253032582000000010B54023A9
:1008500083F3118800F0DAF8BDE8104000F068B8C2
:10086000EFF3058240F27C0040F29401C0F60000F4
:10087000C0F6000103F004F900BF00BFFCE700BFB1
:1008800000F00303DB00FF229A40994010B440F2CD
:10089000D4048008C0F6000454F8203083B00193DB
:1008A000019B1B68019823EA02030B43036003B01A
:1008B00010BC7047412870B504460D462BD8EFF3A5
:1008C0001186402383F3118840F20003C2F2000333
:1008D000802143F824502046FFF7D2FFA4F11003F3
:1008E0001F2B0DD92F2C08D90123303C13FA04F407
:1008F0004EF20413CEF200031C6086F3118870BD23
:10090000012212FA03F34FF46142CEF200021360A7
:1009100086F3118870BD40F2980040F2B001C0F635
:1009200000016A22C0F6000003F03AF9C7E700BFF1
:1009300010B4EFF31184402383F3118840F20000D8
:10094000C2F2000040F66102031F00F58271C0F69A
:10095000000243F8042F8B42FBD14EF60853CEF22F
:100960000003186084F3118810BC704712F0100F58
:100970002DE9F00302F00F0618BF1E4311F0FF0F20
:100980001DD0076800234FF0010C4FF00F080CFA40
:1009900003F49D000C420ED008FA05F916FA05F58D
:1009A00027EA0907282A47EA050708BF446102D059
:1009B000482A08BF04610133082BE8D10760FF29EA
:1009C0001FD9476800234FF0010C4FF00F0803F1C7
:1009D00008040CFA04F49D000C420ED008FA05F944
:1009E00016FA05F527EA0907282A47EA050708BF86
:1009F000446102D0482A08BF04610133082BE6D1C4
:100A000047600020BDE8F003704700BFF0B44FF42A
:100A1000805240F20C240023C4F20202C2F200040D
:100A2000C4F242230121226082B01960136801934D
:100A3000019B13F0010FF9D0536823F003030193D6
:100A4000019B0193019B5360136823F4803313606F
:100A500023681A6822F480221A6023681A6842F414
:100A600080321A6025682B680193019B13F4003FC4
:100A7000F9D06B684FF4905723F47C1343F2FF5086
:100A800001930226C0F27A07C0F26E10B7FBF6F1AE
:100A90004A00022301E0824203D80133112B0A44A9
:100AA000F9D1013EF2D11B029BB2019A9B02A3F540
:100AB0000023134343F480330193019A60236A6057
:100AC000C4F2422301221A60226813680193019B39
:100AD00013F0007FF9D0D823C4F2422300221A6019
:100AE00023684FF400525968C4F2020221F44041D5
:100AF0005960596841F440415960596821F4605186
:100B0000596059685960596821F4E0615960596821
:100B100041F480615960596821F0F00159605968C9
:100B20005960122111605A6822F003020192019A61
:100B300042F002020192019A5A6002B0F0BC704782
:100B400040F21023C2F20003196845F63922C4F6B8
:100B5000AD3246F2355081EA0202C0F2630010184D
:100B60001860000C704700BF007D7047002240F203
:100B700008130275C2F2000399694FF460538A8921
:100B8000C4F2010322F0A0021204120C8A811A8816
:100B900002F47C421A809A8902F400529A817047CA
:100BA000002240F208130275C2F20003996B4FF461
:100BB00088438A89C4F2000322F0A0021204120CB6
:100BC0008A811A8802F47C421A809A8902F40052BF
:100BD0009A817047002240F208130275C2F20003A6
:100BE000996D4FF490438A89C4F2000322F0A00269
:100BF0001204120C8A811A8802F47C421A809A89A3
:100C000002F400529A81704710B440F2D423027D5E
:100C1000C2F200039968002A29D14B6B0A6C9342F7
:100C200015BF4B6BCA6B13F8014B4A634FF49042EC
:100C300018BF4B63C4F2000208BF1C78138803F08E
:100C4000C00323B9138803F0C003002BFAD04FF47C
:100C50009043C4F200039C804C6B8A6B944206D094
:100C6000012202759A8992B242F080029A8110BCE8
:100C7000704700BF10B440F2D423027DC2F20003DB
:100C80005968002A29D14B6B0A6C934215BF4B6BF4
:100C9000CA6B13F8014B4A634FF4884218BF4B6389
:100CA000C4F2000208BF1C78138803F0C00323B904
:100CB000138803F0C003002BFAD04FF48843C4F22A
:100CC00000039C804C6B8A6B944206D00122027513
:100CD0009A8992B242F080029A8110BC704700BF9C
:100CE00010B440F2D423027DC2F200031968002A36
:100CF00029D14B6B0A6C934215BF4B6BCA6B13F82F
:100D0000014B4A634FF4605218BF4B63C4F20102B7
:100D100008BF1C78138803F0C00323B9138803F0BD
:100D2000C003002BFAD04FF46053C4F201039C803F
:100D30004C6B8A6B944206D0012202759A8992B25A
:100D400042F080029A8110BC704700BF2DE9F00389
:100D500040F20817C2F200074FEA401807EB0805F7
:100D6000AB6940F2D426B3F800C0C2F200061FFA05
:100D70008CFC56F820300CF00F021CF0200F5A6546
:100D80001FD0AA691446128812F0200F19D0B4F8A7
:100D90000490DA6C596C91422ED0996C5A6C013ADD
:100DA00091422DD09A6C82F80090996C1A6D914204
:100DB00038D09A6C01329A64AA69128812F0200F16
:100DC000E5D11CF0C00F14D056F820304744586BC2
:100DD0009A6BB96990421BD05A6B186C82420BBF58
:100DE000D86B5A6B586312F8010B0CBF10785A631A
:100DF0008880BDE8F0037047996C1A6D9142CCD1A0
:100E000056F82020516D41F040015165AA69D4E7A0
:100E10008B8923F080031B041B0C8B8100233B7503
:100E20001037E6E7DA6C9A64AA69C6E70220FFF792
:100E30008DBF00BF0120FFF789BF00BF0020FFF773
:100E400085BF00BF10B540F208134001C2F2000395
:100E50001B189C69D869FFF72DFDA3899BB243F04D
:100E60002003A38110BD00BF70B44FF423424FF4A0
:100E700060544FF48C43C1F2E112C4F20104C2F297
:100E8000C333A04218BF1346890048F21F55B3FB75
:100E9000F1F3C5F2EB15A5FB03266422760906FBE8
:100EA00012331B013233A5FB0325C5F3431545EA75
:100EB0000616068170BC70474FF49040C4F20000E3
:100EC000FFF7D2BF4FF48840C4F20000FFF7CCBF59
:100ED0004FF46050C4F20100FFF7C6BF838923F4CA
:100EE00080531B041B0C022983811AD0032912D0C2
:100EF00031B9838923F480631B041B0C8381704701
:100F000040F2583040F25C31C0F60000C0F60001FB
:100F10008D2202F045BE83899BB243F4C063838176
:100F2000704783899BB243F480638381838923F470
:100F300000731B041B0C8381704700BF4FF490406B
:100F4000C4F20000FFF7CABF4FF48840C4F20000AB
:100F5000FFF7C4BF4FF46050C4F20100FFF7BEBFFB
:100F60002DE9F04140F20815C2F200054FEA4018A1
:100F700005EB0803022807469C694AD840F20C2377
:100F8000C2F200031B6840F21C329869BE0040F0B8
:100F90000100C0F60002F119986102EB8101986925
:100FA000C96840EA01019961002F2DD0F11902EBC7
:100FB0008101D869096940EA0101D961F619B600D1
:100FC000975996193189182203233846FFF7CEFC2A
:100FD00004220323B1883846FFF7C8FC002323828C
:100FE0004544A381A3822380A8694FF4E131FFF730
:100FF0003BFFA8690021FFF771FFA3899BB243F073
:101000000C03A381BDE8F081996941F480419961A5
:10101000D4E740F2843040F25C31C0F60001962201
:10102000C0F6000002F0BCFD40F20C23C2F2000347
:101030001B6840F21C32C0F600021421986901FBC3
:10104000072140F0010098619869C968BE0040EA34
:1010500001019961AAE700BF022010B5FFF780FFE8
:101060004FF49043C4F200039A8940F62D6192B286
:1010700042F400520220C0F600019A81BDE81040FF
:10108000FFF7E0BE012010B5FFF76AFF4FF4884379
:10109000C4F200039A8940F6356192B242F40052DC
:1010A0000120C0F600019A81BDE81040FFF7CABEDA
:1010B000002010B5FFF754FF4FF46053C4F2010352
:1010C0009A8940F63D6192B242F400520020C0F687
:1010D00000019A81BDE81040FFF7B4BE022810B5A8
:1010E000044606D840F20813C2F200036001181843
:1010F00010BD40F2843040F25C31C0F600014FF484
:10110000C372C0F6000002F04BFDEBE708B54EF2EB
:101110001403CEF2000345F6BF5241F2C1511A60EA
:101120000F20C0F60001FFF7C5FB4EF21003CEF210
:1011300000031A6842F007021A6008BD38B5EFF3E1
:101140001183402282F311884C6BCA6B944236D0D3
:101150008C6B4A6B013AC4EB020EDEF1000242EBEB
:101160000E0283F31188CAB1402509E08C6B4A6BEB
:10117000013A141B624242EB040283F311886AB104
:10118000EFF3118385F311884C6BCA6B9442EDD158
:101190008C6B0A6C9442E9D10122EEE78B6BC4B2EE
:1011A0001C700B6C8A6B886D9A420EBFCB6B8B6B7D
:1011B00001338B6303681B699847204638BD8C6BED
:1011C0000A6C9442C4D10122CBE700BFF8B50446B3
:1011D00045F24C23006AC5F2453398420E46154647
:1011E0000FD12F465DB1002702E00137BD4206D086
:1011F000F05D2146FFF7A2FFB0F1FF3FF5D1384681
:10120000F8BD40F2E83040F20041C0F60001BC22D7
:10121000C0F6000002F0C4FCE3E700BF10B545F2E1
:101220004C23026AC5F245339A4204460ED1626BE2
:10123000A36B9A4203D0626BA36B9A42FBD1A06D61
:1012400003685B6998470028F5D110BD40F2E8308B
:1012500040F20041C0F60001BC22C0F6000002F0DE
:101260009FFCE4E710B545F24C23026AC5F2453312
:101270009A42044602D10023636510BD40F2E83073
:1012800040F20041C0F60001BC22C0F6000002F0AE
:1012900087FCF0E710B545F24C23026AC5F24533EE
:1012A0009A42044601D1606D10BD40F2E83040F230
:1012B0000041C0F60001BC22C0F6000002F070FC44
:1012C000F1E700BF70B545F24C230446006AC5F251
:1012D000453398420E4615462AD1002D26D00020CF
:1012E000626CA36C9A4204D0636D13F0630F0CD050
:1012F00070BD626CA36C9A42F6D1636D13F0630FFC
:10130000F7D0636D13F0630FF2D1636C226D9342DB
:101310000BBFE26C636C626413F8012B0CBF1A788C
:101320006364325401308542DAD870BD2846DFE765
:1013300040F2E83040F20041C0F60001BC22C0F6A5
:10134000000002F02DFCC8E738B545F24C23026AD4
:10135000C5F245339A42044613D194F83030E3B1D4
:10136000002584F830502046FFF758FFA06D036831
:101370005B689847A36CA5656364A36B28466363A9
:1013800038BD40F2E83040F20041C0F60001BC2216
:10139000C0F6000002F004FCDFE740F2144040F227
:1013A0002441C0F600014FF4C172C0F6000002F003
:1013B000F7FBD5E7022970B50D4604463CD840F24C
:1013C000D423C2F2000343F8254094F83030002BB8
:1013D00076D1012384F83030E5622846FFF77EFE9F
:1013E000A0654368002B5DD08368002B4CD0C66895
:1013F0004568012E3AD9A563013EA36BAE19E5639A
:101400006363266406698568012E22D9A564A36CEE
:10141000013EA06DAE19E56463642665036821464C
:101420001B689847A06D4FF4E13103689B689847AB
:1014300000236365204670BD40F2384040F22441ED
:10144000C0F600014FF4AD72C0F6000002F0A8FB38
:10145000B5E740F28C4040F29841C0F6000140F2FE
:101460002112C0F6000002F09BFBCFE740F28C4057
:1014700040F29841C0F60000C0F6000140F221128F
:1014800002F08EFBA06DB6E740F2784040F22441B6
:10149000C0F60000C0F6000140F2651202F080FBC9
:1014A000A06DA4E740F2644040F22441C0F6000081
:1014B000C0F600014FF4B27202F072FBA06D93E728
:1014C00040F2544040F22441C0F6000140F25D1267
:1014D000C0F6000002F064FB7BE700BF10B545F2E8
:1014E0004C23026AC5F245339A42044608D120468D
:1014F000FFF72AFF2046E16AFFF75CFF204610BD98
:1015000040F2E83040F20041C0F60001BC22C0F6D3
:10151000000002F045FBEAE7426C836C9A420DD072
:10152000436C026D93420BBFC26C436C426413F870
:10153000012B0CBF1A784364104670474FF0FF3000
:10154000704700BF08B5806D03689B68984708BD69
:101550002DE9F0415C220D460021044603F00AF813
:1015600041F2CD1041F21D21C0F60000C0F600018D
:1015700045F24C2841F2DD4C41F2493741F2C52693
:1015800041F2952241F26523C5F24538C0F6000CC0
:10159000C0F60007C0F60006C0F60002C0F6000361
:1015A0006060616120462946C4F82080C4F808C004
:1015B000E7602660A261E361BDE8F041FFF7FABE93
:1015C0002DE9F84340F2E026C2F20006336840F20B
:1015D000E827C2F2000701333C6833602368002B20
:1015E00030D0EFF311834FF0400989F3118832684E
:1015F00083F31188E368D31A002B27DB6FF0604870
:1016000000250AE0EFF3118389F31188326883F330
:101610001188E368D31A002B16DB444518D9636898
:10162000226804F110001A60236862685A604BF661
:10163000AB22236965602560A28398473C682368D4
:10164000002BDFD1BDE8F883BDE8F883BDE8F8835F
:1016500040F2E84140F2D442C0F60001C0F6000278
:10166000CB23204602F0B0FAD9E700BF40F2E823CE
:10167000C2F2000340F2E02210B5002103F108009D
:10168000C2F2000240F2E424186059609960DB6005
:10169000C2F200041160FFF739FD237813B901236A
:1016A000237010BD40F2145040F2D441C0F6000146
:1016B00040F29112C0F6000002F072FAEFE700BFAC
:1016C00030B54B6883B0C5B20C468DF807505BB19E
:1016D00020460DF107010122984701280CBF28463A
:1016E0004FF0FF3003B030BD40F2685040F234514B
:1016F000C0F60000C0F600014FF4877202F050FA05
:101700006368E5E710B5036882B0044663B101225F
:1017100020460DF10701984701280CBF9DF80700EE
:101720004FF0FF3002B010BD40F2745040F234511F
:10173000C0F60000C0F60001F22202F031FA236880
:10174000E5E700BF0EB410B583B005AC54F8043B18
:1017500041F2C1610246C0F60001184623460194D9
:1017600000F006F803B0BDE8104003B0704700BFBA
:101770002DE9F04F46F26764BDB00025C6F26664FD
:101780000DF1640983460F4690460A93039512941F
:10179000CDF808901BF8010B25280ED0002800F08A
:1017A00045814146B847DDF80CC00CF1010CCDF87D
:1017B0000CC01BF8010B2528F0D19BF80000252850
:1017C00000F038810021089EDDF824C005910791C2
:1017D000069104910C460D46A0F120035A46102BA9
:1017E00036D8DFE803F01A35351635353535353559
:1017F0003512350E35350900012305931BF8010F0D
:10180000EAE701251BF8010FE6E701211BF8010FAC
:10181000E2E701241BF8010FDEE79DF8EC300C989D
:1018200061F3010360F3820365F3C3036CF30413F4
:1018300066F345130B9A64F3861362F3C71313F030
:10184000030F8DF8EC3008BF01211BF8010FC3E72F
:101850002A280791069404950E9400F0C080A0F108
:101860003003DBB2092B00F2A3840BF1010B00253E
:1018700005EB850500EB45055A461BF8010B303D8D
:10188000A0F13003DBB2092BF2D90599049B002BA0
:1018900018BF00212E28059118BF4FF0FF3300F02C
:1018A000AA80682800F0948000F286804C2800F01E
:1018B000888000210891099102F1010B782800F23B
:1018C000C083DFE810F0B603BE03BE03BE03BE0351
:1018D000BE03BE03BE03BE03BE03BE03BE03BE0300
:1018E000BE03BE03BE03BE03BE03BE03BE03BE03F0
:1018F000BE03BE03BE03BE03BE03BE03BE03BE03E0
:10190000BE03BE03BE03BE03BE03BE03BE03BE03CF
:10191000BE03BE03BE03BE03BE03BE03BE03BE03BF
:10192000BE03BE03BE03BE03BE03BE03BE03BE03AF
:10193000BE03BE03BE03BE03BE03BE03BE03BE039F
:10194000BE03BE03BE03BE03BE03BE03BE03BE038F
:10195000C503BE03AD03BE03BE03BE03BE03BE0389
:10196000BE03BE03BE03BE03BE03BE037D03BE03B0
:10197000BE03BE03BE036D03BE03BE03BE03BE03B0
:10198000BE03BE03BE03BE03BE03BE03EB02D5020D
:10199000C5032701AD03BE03D502BE03BE03BE03CC
:1019A000BE03BE03BE036D03BE03BE037D03BE03C1
:1019B0006D03BE03BE03BF006C2802D07A287FF4FB
:1019C00078AF0021012412F8010F0891099473E700
:1019D0000121002412F8010F089109946CE70A9C78
:1019E00025680434002DC0F2D8839BF801000BF168
:1019F00001020A9449E75078511C2A2800F0BE835E
:101A0000A0F13003DBB2092B00F24A84911C0023C1
:101A100003EB830300EB43030A4611F8010B303B51
:101A2000A0F13004E4B2092CF2D93AE703983DB0B2
:101A3000BDE8F08F4146B84703980BF1010B013028
:101A40000390A7E640F2C056C0F6000609990029A7
:101A500000F0A7830A9C226804340A94B0F1750C44
:101A600018BF4FF0010C0021CDF830C00791111EB6
:101A700018BF01210B911BB90DF1E90A544641B37E
:101A80000C9C012C00F045834CF6CD493AA9CCF6CC
:101A9000CC49A9FB02C4E40804EB840CA2EB4C0281
:101AA00016F802C022460C4601F801C9002AF0D1FE
:101AB000002BC0F23B830DF1E90AC4EB0A0293420A
:101AC00007DD611E3026013293420C4601F80169A0
:101AD000F9DC069A92B10B9B83B1A0F178025342D4
:101AE00043EB0203582808BF43F0010333B1631EE0
:101AF000302204F8010C023C03F8012CDDF80890B8
:101B00004C45C0F0DA83C4EB0A0A554580F2D28115
:101B10000025F0E10021109111910A46002BA4BF8D
:101B2000D2B21092C0F29F829BB20D930A9B002208
:101B3000DC1D24F00704D4F8009066684846083499
:101B4000314600230A9402F085FC18B1022406F104
:101B5000004607940023484631460022C3F6F0733E
:101B600002F08CFC0DF1640C82460CEB050400289D
:101B700000F07C824846314689A3D3E9002302F075
:101B80007DFC002800F090830020AA460F90254697
:101B900004464846314684A3D3E9002302F012FBF1
:101BA0007FA3D3E9002381460E460A3402F066FC87
:101BB0000028EED10F942C46554600234846314666
:101BC0000022C4F2240302F059FCC0B1AA46254603
:101BD0000F9C0023484631460022C4F2240302F041
:101BE000F1FA00230022C4F2240381460E46013498
:101BF00002F044FC0028ECD10F942C465546109975
:101C000009B30F9BDDF834C01AB212F1040FB4BF50
:101C1000002101210FFA8CF39A42ACBF002301F09E
:101C2000010333B10F990022C1EB0C039BB20D935A
:101C300011920D980699431E9BB20D93002900F056
:101C4000A882002210921198A2464FF0000C40B9D1
:101C50000F990BB2002BC0F2ED820F98A246C0F193
:101C6000000C0D990FFA8CF30AB29A4238DB1FFA76
:101C70008CFCCDF854B01697139514946746CDF8A4
:101C80005C8093463146484602F00CFC804600B228
:101C900002F008F902460B464846314601F0B4FF0F
:101CA0000023C4F22403002202F062F908F1300894
:101CB0007B1C0AF8018B81460E4637B90D9A0AB98A
:101CC000069C14B12E250AF8015B9FB23BB25B451E
:101CD000D8DD139D149CDDF854B0169FDDF85C80B0
:101CE0000023484631460022C4F2140302F0C6FB2A
:101CF000002831D053460120302602E000209C42CB
:101D00000CD213F8012D81182E2AC9B2F7D03A2926
:101D10001970F3D101209C421E70F2D3E0B11198EA
:101D2000002800F0688254450ED2534613F8012C67
:101D3000591E2E2A0BBF13F8022C1A701A700B466C
:101D400008BF4B1E9C42F1D30F9901310F913CAB60
:101D50005A19312302F88C3C109850B1534613F8AD
:101D6000012C9A46302A03F1FF33F8D02E2A08BFFF
:101D70009A461199002947D0DDF83C9052460FFA57
:101D800089F3002B02F8011BC0F247822B218AF84D
:101D90000110013202F10A0ADDF848C0002208E011
:101DA000000000E876483742000000205FA00242B1
:101DB0000B468CFB0310D917C1EBA000013201B216
:101DC00000EB8000A3EB400692B2081E18BF012072
:101DD00013B23036012BD8BF40F001000AF8016B76
:101DE0000028E5D14FF6F576CFF6FF76F61A013AE0
:101DF000594292B21AF801000AEB030113B2002B08
:101E00008855F4DCAAF10A0A059A002A3FF47BAE51
:101E10009DF8EC30DDF81C90DDF830C069F301036B
:101E2000049809996CF3820360F3C303089A61F381
:101E30000413DDF8389062F345130B9869F38613A9
:101E400060F3C71313F0030118BF0121C4EB0A0AA2
:101E5000691A51458DF8EC3029DD5346621E302059
:101E60000133994214469A4602F80109F8DC1EE053
:101E7000099A002A40F0A381DDF82890D9F80020C3
:101E800009F10409002ACDF82890C0F29F8140F2A0
:101E9000D05600240C94C0F60006E8E50A9A4FF0EC
:101EA000010A136804328DF864300A9219AC554562
:101EB000FFF62EAE9DF8EC3007990C9A61F3010302
:101EC000049862F38203099960F3C303089A61F3EB
:101ED0000413DDF8389062F345130B9869F3861309
:101EE00060F3C71313F00302CAEB050518BF012204
:101EF0008DF8EC30AD1A049969B96E1E48BF3546AD
:101F000009D420204146B847013EFAD5039A521918
:101F100003924FF0FF359DF8EC30DDF81C90DDF8B2
:101F200030C069F3010304986CF38203099960F3EC
:101F3000C303089A61F30413DDF8389062F3451384
:101F40000B9869F3861360F3C7138DF8EC3013F028
:101F5000030308D04146012B14BF2D202B20B84786
:101F6000039901310391BAF1010608D414F8010B69
:101F70004146B847013EF9D5039A52440392049B67
:101F8000002B3FF407AC6C1E3FF504AC202041460B
:101F9000B847013CFAD5039C64190394FFF7FABBD8
:101FA000702840F04281DDF828C040F2D056DCF8BD
:101FB00000200CF1040CC0F60006CDF828C04DE559
:101FC000DDF8289040F26C12D9F80040C2F200020D
:101FD000002C08BF1446002B09F10406C0F25C81F6
:101FE000D4BF002101212278002A0CBF002201F079
:101FF0000102002A00F05C81611C00228A4611F86F
:10200000010B0132003818BF01209342D4BF0020D9
:1020100000F001000028F1D1C4EB0A0A0A9646E755
:102020000238C0B21190002B40F0C58001231093FC
:102030007AE540F268144FF0030A9346C2F20004B6
:1020400035E740F268144FF0030AC2F200042EE7AD
:1020500000210A46002BA8BFD2B210911190A8BF50
:102060001092BFF661AD06220D925FE548463146FB
:102070000022002302F0E4F98446002840F0868024
:102080004846314694A3D3E90023CDF804C002F0BA
:10209000EBF9DDF804C0002800F00D81AA46CDF868
:1020A0003CC025466446484631468DA3D3E900230B
:1020B00001F05EFF88A3D3E9002381460E460A3C67
:1020C00002F0D2F90028EED10F942C465546002399
:1020D000484631460022C3F6F07302F0BBF90028EF
:1020E0003FF48DADAA4625460F9C00234846314655
:1020F0000022C4F2240301F03BFF00230022C3F6B8
:10210000F07381460E46013C02F0A4F90028ECD1A0
:1021100072E53AA902F00F0416F804C012090C4641
:1021200001F801C9F6D1002BBFF6C5AC059900290D
:102130003FF4C1AC9DF8EC20079BDDF8309063F3D1
:1021400001020499099B69F3820261F3C3020899B1
:1021500063F30412069B61F345120B9963F3861235
:1021600061F3C71212F003030DF1E90A18BF01234E
:102170008DF8EC20EB1AC4EB0A02A0E40A9C487824
:10218000236804344A1C0A94FFF78BBBCDF83CA0AB
:1021900035E501230693109355E501206D42049027
:1021A00023E40899F1B10A9C228804340A9455E486
:1021B0000025FFF76ABB012010900246AEE40A9C9E
:1021C00022680434002A0A94BFF661AE40F2D05669
:1021D0004FF0000C02215242CDF830C00791C0F6FA
:1021E000000644E4DDF82890D9F8002009F104093C
:1021F000CDF8289032E40AF1010A5445BFF4A7ADA6
:10220000534613F8012C03F801299C42F9D33CAB47
:102210005A19312302F88C3C9EE52D23C9F10001A7
:102220008AF8013001320BB2B4E540F2D056C0F664
:1022300000060BE43CAA0D985119302201F88C2CB1
:1022400004F1010A10B9069900292FD02E220AF8AC
:10225000012B0D98B3F1FF3F11D080B152464FF6DC
:10226000FF71AC4600E048B13025013902F8015B4E
:102270000DB20138AB4280B29246F4DB6546DDF820
:1022800034C00FFA8CF2D2439342A4BF0D904FF0AA
:10229000010CBFF6E6AC5FE5012142F21073A2E645
:1022A0000A460023FFF7FDBA0F9086E40698D1E7AF
:1022B0000A969246FBE50F9009E740F2945040F2EF
:1022C000A851C0F60000C0F6000140F2B72201F0AC
:1022D00067FCC4EB0A0AEAE5BBBDD7D9DF7CDB3D6E
:1022E000000000205FA00242F0B4322202FB01F2A3
:1022F00040F27413C2F200039C5C9D18013CE4B2EE
:1023000014F0800F688223D101EB8101002601EBDC
:10231000810160B20D18101803EB450C1F18013C29
:10232000BCF8120097F901C067B203EB4505B7F19D
:10233000FF3FA88200FB0C66EBD136B206F17F00AE
:1023400036EA260628BF0646F00940B2F0BC7047C0
:102350000020FAE710B545F24B33026AC4F2461387
:102360009A4204460AD1EFF31183402282F3118886
:102370000022C4F8882683F3118810BD40F2606003
:1023800040F27861C0F60001D622C0F6000001F0EC
:1023900007FCE8E710B545F24B33026AC4F2461376
:1023A0009A42044609D1EFF31183402282F3118847
:1023B000D4F8880683F3118810BD40F2606040F2C3
:1023C0007861C0F60001D622C0F6000001F0E8FBFB
:1023D000E9E700BF10B545F24B33026AC4F2461379
:1023E0009A42044600D005E094F88536002BFBD1D4
:1023F000002010BD40F2606040F27861C0F600013C
:10240000D622C0F6000001F0CBFBEDE7F8B504469C
:1024100045F24B33006AC4F2461398420D46164605
:102420003DD12846002E38D0A26DE36D9A4234D0BB
:1024300040F2E021013EAC46C2F200014027EFF33A
:10244000118387F31188086883F31188A26DE36D07
:102450009A420CD1EFF3118287F311880B6882F353
:1024600011881B1A002BF1DDC5EB0C00F8BDA36D24
:10247000626E93420BBF226EA36DA26513F8012B0F
:102480000CBF1A78A3650CF8012B60462EB1A26D23
:10249000E36D9A4201D0013ED1E7401BF8BD40F206
:1024A000606040F27861C0F60001D622C0F60000FC
:1024B00001F076FBB5E700BF2DE9F04F45F24B3355
:1024C0000446006AC4F24613984283B00D4616468D
:1024D0007CD12846002E5DD040F2193340F6283BCF
:1024E00044F6D35AC2F20003B046A946C2F2000B2A
:1024F0004027C1F2620A01930BE0D4F86C12D4F8C1
:102500006822013A511A4A4242EB010283F31188D0
:10251000A2B1EFF3118387F31188D4F86812D4F8CD
:1025200070229142E9D1D4F86C12D4F8742291420D
:10253000E3D1012283F31188002AEAD1D4F86C3266
:1025400019F8012B1A70D4F87432D4F86C229A421C
:102550000EBFD4F87032D4F86C320133C4F86C3248
:1025600094F88536D3B1EFF3118387F311889BF884
:10257000002042F6E06101FB02F202F57A62AAFB5A
:102580000212520AA4F8922683F31188B8F10108C6
:10259000BFD1A819401B03B0BDE8F08F012284F819
:1025A000383084F88526019963870A7842F6E0611D
:1025B00001FB02F202F57A62AAFB02124021520AE2
:1025C000A187A4F8902601F08BF8CCE740F2606078
:1025D00040F27861C0F60001D622C0F6000001F09A
:1025E000DFFA76E738B50D46044600212846FFF7A6
:1025F0007BFE0028B8BF40420121A4F87C06284693
:10260000FFF772FE94F8805694F87C3680EAE07208
:10261000A2EBE0726D00D31A84F8805658B2022102
:10262000A4F87E26FFF760FE0028C8BF45F001052C
:10263000EDB285EA550313F0010F84F8805608BF08
:1026400094F8833605D094F883365AB21F2A79DC81
:10265000013308335AB23F2A84F8833671DD94F887
:10266000801694F8842601F00701A1F1030C481F9D
:102670005200DCF10001C0B241EB0C0103F03F035A
:10268000D2B2022898BF41F0010184F8833684F861
:10269000842619B142F0010284F8842694F88C361D
:1026A00082EA520212F0010F4FEA430308BF43F0DF
:1026B0000103DBB27E2B84F88C3645D003F07F0219
:1026C0007F2A65D094F88F26002A3AD003F03F0283
:1026D0003E2A36D013F0010F1EBF94F88E3663F0F9
:1026E0007F0384F88E3694F88D360133DBB2072BE6
:1026F00084F88D3650D994F88E36A3F11B00A3F1DF
:102700007E024342D2B243EB0003012A98BF43F05A
:102710000103002B46D1236E0122A16D8B425FD0B5
:10272000E16DA36D013B994256D0E36D94F88E168E
:102730001970E16D636E99425FD0E36D0133E3651B
:1027400018E038BD013B84E7A26D236E9A423FD06A
:10275000E26DA36D013B9A423ED0E36D7E221A707A
:10276000E26D636E9A424BD0E36D0133E365012263
:1027700084F88F26002384F88E3684F88D36002A5C
:10278000DFD1D4F8883643F00103C4F8883638BD69
:10279000002384F88F3638BD94F88E365B0884F8B1
:1027A0008E3638BDA26D236E9A421ED0E16DA26DA9
:1027B000013A91421DD0E36D1B221A70E26D636EE7
:1027C0009A4220D0E26D236E0132E2650122A4E735
:1027D000E26D636E9A42BBD1002284F88F26C9E76E
:1027E000E16D636E99429BD1F6E7E16D626E9142B5
:1027F000DCD1002284F88F268FE7236EE365B9E7EA
:10280000236EE365B3E7236E0122E36585E700BF2E
:1028100010B590F8343082B0D3B1828F591E438FF7
:1028200080F83410D318DB05DB0DD9B27F2988BFBF
:10283000C1F1FF0140F2E05288BF89B2C0F6000248
:10284000FF2B4387505C01D9C043C0B202B010BD1A
:1028500090F83630002B59D1D0F86822D0F86C327D
:102860009A427BD090F837300BB980F83830B0F806
:102870009036012280F83720002B65D1D0F86822ED
:10288000D0F86C329A427ED0D0F86832D0F8741208
:102890008B420BBFD0F87032D0F86832C0F8683283
:1028A00013F8012B0CBF0A78C0F868321B2A80F895
:1028B000352060D1D0F86822D0F86C329A426BD0C3
:1028C000D0F8683299420BBFD0F87032D0F8683235
:1028D000C0F8683213F8012B0CBF0A78C0F86832D0
:1028E00080F835200123012280F8362093B190F83A
:1028F0003830042B0ED9828F0023402A14BF402287
:10290000752280F838308287072188E790F83730C1
:10291000002BECD190F8363090F835201A400DD1CC
:10292000818F80F83820402914BF40227522828789
:102930005B00828F80F83630072170E790F83820EE
:10294000013280F83820F3E7013BA0F890367E236F
:1029500080F83530002380F83730C4E7B0F892466D
:10296000002C7FF47FAF019000F0CCFE019880F83E
:10297000854620466AE77E3AD2B2012A88BF90F89F
:102980003730B0D8E6E7B0F89236013BA0F892367F
:102990007E2380F83530DDE7019000F0B3FE01982A
:1029A000002380F88536184650E700BF2DE9F04136
:1029B00040F2E423C2F200031B7804460E4615469B
:1029C000002B59D0002140F29462204601F0D2FD44
:1029D00004F150016164636C04F168022364E265F0
:1029E000E06D04F51873073304F15407A0656366BE
:1029F000E6622563A164E764226604230020626C1A
:102A00001070E26C616C91420EBFA26C626C01327C
:102A1000013B6264F3D104F51E7CC4F86CC242F23F
:102A20005533C0F60003D4F86C8204F5CE6645F247
:102A30004B3742F2B94542F20D4042F2D53142F2F3
:102A400095320736C4F24617C0F60005C0F60000FE
:102A5000C0F60001C0F60002E3614023C4F870C272
:102A6000C4F86882C4F8746227626560206061619E
:102A7000A261A387BDE8F08140F28C6040F2A061C2
:102A8000C0F6000140F29122C0F6000001F088F883
:102A900098E700BF2DE9F04F40F21C1597B00446AF
:102AA000C0F600050DF10906D4F84C01FEF72AFE28
:102AB000B0F1FF3F4DD094F85E215AB97E2878D00E
:102AC0007F2804BF84F85D2184F86021ECD01B28A6
:102AD00000F0888094F85D318BB3D4F85031B3F5B1
:102AE000A57F60D2C1B2E154B4F8542194F85F716B
:102AF000514001F0FF01A7F1010C35F811E0DCF1C4
:102B0000000141EB0C018EEA12220133F02814BFC0
:102B1000002101F00101C4F85031A4F8542100292A
:102B200064D1A0F10303584240EB0300002F14BF0F
:102B3000002700F0010717B1012384F85F3100235B
:102B400084F85E31D4F84C01FEF7DCFDB0F1FF3FB4
:102B5000B1D1D4F84C51AB69002B00F0F480284679
:102B60009847E8B1D4F84C51AB69002B00F0DD80F8
:102B70002846984740F29401024640F2CC60C0F6E5
:102B80000000C0F6000100F07BFFD4F84C51EB6967
:102B9000002B00F0BC8028469847002384F8603161
:102BA00017B0BDE8F08F002384F85D3184F8603100
:102BB000C5E7D4F85071112F05D9B4F854114FF26C
:102BC000B803994219D00122002384F85D214FF007
:102BD000FF32A4F85421C4F8503184F85F3184F8EE
:102BE000603161E7012384F85E315DE7022384F8F8
:102BF0005F31012384F86031A1E794F85C3133B18F
:102C0000D4F85831002BDED010469847DBE7214638
:102C10000DF10A020DF1040804A811F8013B5B084C
:102C2000202B08BF002302F8013F8242F5D1A3798F
:102C3000E11DC3F343038DF811300DF1030211F8C8
:102C4000013B5B08202B08BF002302F8013FB24282
:102C5000F5D1637B04F10E00C3F343028DF80A2023
:102C6000002213F0010E8DF84A2036D19DF84B90CA
:102C7000F2464FF0010B0EF1010C01AACCEBCC0196
:102C8000511806310022835C01325B08202B08BFFB
:102C90000023062A01F8013FF5D10BFA0EFE8379D5
:102CA0000AF1010A13F0800F14BF4EEA090929EA5C
:102CB0000E09C3F34302073013F0010F88F8142004
:102CC0005FFA8AFA05D1BCF1080FE64608F1070859
:102CD000D1D18DF84AA08DF84B900378032BADF835
:102CE0004C307FF470AF4378F02B8DF84E307FF48A
:102CF0006AAF821C023FA11AD4F858317918159195
:102D00001492002B3FF45FAF01A898475BE740F2B5
:102D1000805040F23451C0F60000C0F600014FF47C
:102D2000A97200F03DFFEB6935E740F2C06040F268
:102D30003451C0F60000C0F6000140F2491200F024
:102D40002FFFAB6914E740F2C06040F23451C0F687
:102D50000000C0F6000140F2491200F021FFAB690B
:102D6000FDE600BF70B5A1F17E030C46A1F11B0189
:102D70004A42DBB242EB0102012B8CBF134642F008
:102D80000103054623B11B20D5F84C11FEF798FC32
:102D9000B5F8563140F21C1284EA030101F0FF013C
:102DA000C0F6000232F81120D5F84C1182EA132344
:102DB0002046A5F85631BDE87040FEF781BC00BF43
:102DC00070B54FF0FF3304460D461646A0F8563155
:102DD000D4F84C117E20FEF773FC36B1204615F86E
:102DE000011BFFF7BFFF013EF8D1B4F85651204652
:102DF000E943C9B2FFF7B6FF6FEA15212046C9B211
:102E0000FFF7B0FFB4F856214FF2B8039A4206D14B
:102E1000D4F84C117E20BDE87040FEF751BC40F262
:102E20002C7040F2F061C0F600014FF4A072C0F6C1
:102E3000000000F0B5FEEBE7F8B504460D46164677
:102E40001F4698B1FDB1204600214FF4B27201F047
:102E500091FB4FF0FF33C4F84C51C4F8587184F81B
:102E60005C61A4F85631A4F85431F8BD40F25870B2
:102E700040F2F061C0F600014FF4B872C0F60000F5
:102E800000F08EFEDEE740F25C7040F2F061C0F6CA
:102E9000000140F27112C0F6000000F081FED2E79E
:102EA00040F2193C2DE9F007C2F2000C40F218374D
:102EB0004FF0320AC2F2000740F628368CF800A024
:102EC0004FF03F0CC2F2000640F6203587F800C0F4
:102ED0000527C2F2000540F6183440F2143340F6DC
:102EE000243840F6143937700A26C2F20004C2F2C0
:102EF0000003C2F20008C2F200092E7000252570FE
:102F00001860C8F80010C9F80020BDE8F007704745
:102F1000F8B540F2FC24C2F2000425680E46052DE7
:102F200010D040F27043C2F200034FF4AA7707FBBF
:102F30000537014632463846013501F0DBFAC7F85D
:102F40004C612560F8BD00BF38B540F21433C2F2C1
:102F500000031868FEF7E0FAB0F1FF3F44D040F2FA
:102F60001C34C2F20004D4F84C31CBB1EFF3118120
:102F7000402383F3118840F2E023C2F200031A6871
:102F800081F31188D4F85031D31AB3F5FA6F04DC09
:102F9000D4F84C31B3F5A47F02D30023C4F84C31EC
:102FA000C02822D0DB284BD0DD2850D0DC2859D0D7
:102FB00040F21033C2F200031A780AB100221A70EC
:102FC000D4F84C315A1CE054C4F84C21EFF3118270
:102FD000402383F3118840F2E023C2F200031B6810
:102FE00082F31188C4F8503138BD40F21035C2F276
:102FF00000052B78FBB9D4F84C1140F21C30C2F21A
:103000000000C1B1037803F00F021B0935D1002A7B
:1030100044D001290FD9012A45D0022A4AD0032AD7
:103020004FD0042A54D0052A01BF40F618336278E5
:10303000C2F200031A700023C4F84C312B7038BD63
:1030400040F21033C2F2000301221A7038BD40F280
:103050001033C2F200031A78002AB1D000221A708D
:10306000DB20ADE740F21033C2F200031A78002AE9
:10307000A6D000221A70C020A2E7052BDBD8002AB8
:10308000D9D140F20032C2F20002013B52F82330A3
:10309000002BD0D0013001399847CCE701300139FD
:1030A000FFF736FFC7E740F219334278C2F2000358
:1030B0001A70C0E740F218334278C2F200031A7067
:1030C000B9E740F620334278C2F200031A70B2E743
:1030D00040F628336278C2F200031A70ABE700BFF3
:1030E0002DE9F04740F2FC24C2F200042368002BD3
:1030F00034D040F62436C2F20006336893F86031CB
:1031000063BB40F2F828C2F2000898F80030012BA7
:1031100026D0FDF715FD40F21833C2F200031B78EC
:10312000C0B2834242D32368A3B140F27049C2F2D5
:1031300000094F4600254FF4AA7A0AFB0591D7F8FB
:103140004C213068FFF73CFE23680135AB4207F5A0
:10315000AA77F2D80023236088F80030BDE8F08712
:10316000EFF31182402383F3118840F2E023C2F28F
:103170000003196882F3118840F61C3240F62033B0
:10318000C2F20002C2F2000312681B788A1A03EB33
:103190008303B2EB430FE1DDFDF7D2FC40F21833BD
:1031A000C2F200031B78C0B28342BCD2012388F86C
:1031B0000030EFF31181402383F3118840F2E023C4
:1031C000C2F200031A6881F3118840F61C33C2F280
:1031D00000031A60BDE8F0872DE9F04740F214348F
:1031E000C2F2000406460D46C02021689046FEF754
:1031F00067FA300100F0F0002168FEF761FAB8F1DB
:10320000000F19D00026A14607E02168FEF758FA02
:10321000DB2F17D00136B0450ED9AF5DC02F384631
:10322000F3D12168DB20FEF74BFA0136DC20216860
:10323000FEF746FAB045F0D82168C020BDE8F04757
:10324000FEF73EBADD20D9F80010FEF739FAE1E7C3
:1032500040F62C31C2F20001D1F850210020023A90
:10326000FFF7BABF70B5002484F3118800F028FC82
:10327000FEF7FCF940F20C23C2F200031D684FF484
:103280008050AE69032346F010061022AE614FF461
:103290004071C4F20100FDF769FB40F69040214601
:1032A000C2F20000FEF754F940F69040C2F200006E
:1032B0004FF4E131FEF746F940F6EC402246214654
:1032C000C2F20000FFF772FB40F6EC40C2F20000D1
:1032D00000F03EF91921642000F006F900F060F9D1
:1032E00040F6EC40C2F2000000F086F9642019219B
:1032F00000F0C6F940F6904040F62C3140F6EC4222
:10330000C2F20000C2F20001C2F20002FFF7C8FDE3
:1033100040F62C3040F6EC4143F251230122C0F636
:103320000003C2F20000C2F20001FFF785FD40F287
:10333000647040F27C71C0F60000C0F6000100F03D
:103340009FFB40F2847040F27C71C0F60000C0F632
:10335000000100F095FB40F6904040F26871C0F625
:103360000001C2F20000FEF7EDF940F6904040F295
:103370008871C2F20000C0F6000140F62C3640F61B
:10338000EC454FF48054FEF7DDF9C2F20006C2F2BC
:103390000005C4F201040EE0236943F48073236145
:1033A00095F88536CBB1236943F400732361FFF7A9
:1033B000CBFDFFF795FE40F62C30C2F20000FFF780
:1033C00069FB96F86031002BE6D1636943F48073A2
:1033D000636195F88536002BE5D1636943F400738A
:1033E0006361E4E710B54FF48053C4F20203DA6876
:1033F00086B042F40072DA60DA684FF4105022F4BA
:103400000072DA604FF4803201240023C4F201001C
:1034100001A901924FF400228DF809300392049320
:103420008DF808408DF8144000F07EF94FF41050EC
:10343000C4F20100214600F013FA4FF410500723A4
:103440002246C4F20100214600F0C2F94FF41050A8
:10345000C4F201004FF4087100F00EFA4FF410505E
:10346000C4F201004FF40871224600F091F94FF4C4
:103470001050C4F20100214600F07EF94FF41050C4
:10348000C4F2010000F090F94FF41050C4F20100B2
:1034900000F090F90028F7D14FF41050C4F2010069
:1034A00000F08CF94FF41050C4F2010000F08CF9D8
:1034B0000028F7D106B010BD10B54FF41054C4F277
:1034C000010420464FF4087100F0D6F9E16C41F296
:1034D00080330909C2F200038039186849B2BDE897
:1034E0001040FFF77FB800BF10B5002284B04FF442
:1034F000805301920292ADF80C20C4F202031A69C3
:10350000012842F002021A611A698CBF00240124CA
:1035100022F00202032998BF44F001041A61A4B901
:1035200004AA013822F80C0D4FF480604B1EC4F23F
:1035300000001146ADF8083000F0D6F94FF4806075
:10354000C4F20000202100F067FA04B010BD00BFF3
:1035500010B504464FF40060022100220323C4F298
:103560000100FDF703FA4FF48053C4F202039A6995
:1035700042F400729A61DA6942F00202DA61FFF7FE
:1035800031FF41F2803343F2B941C2F200032220FD
:10359000C0F600011C60BDE81040FDF78BB900BF0C
:1035A0004FF48060C4F20000012100F01BBA00BF9C
:1035B0004FF4806010B5C4F20000002100F012FA50
:1035C000BDE81040FFF70EBF08B54FF08040012165
:1035D00000F02EFA41F28433C2F200031868FFF7BC
:1035E00017F94FF4E843C4F2000318615A6842F037
:1035F00001025A6008BD00BFF0B54FF48056C4F216
:103600000206F3694FF4006443F00103F361F769C4
:10361000C4F2010447F0005785B00546012110228D
:103620000323F7612046FDF7A1F920460024224636
:1036300003231021FDF79AF93C23694620460093A5
:103640000194039400F01CF92046012100F034F9A4
:103650004FF4E842C4F200021461506841F284332E
:1036600040F00100C2F2000343F2C9515060C0F6BD
:1036700000012C201D60FDF71DF905B0F0BD00BF55
:1036800010B5002284B04FF4805301920292ADF83D
:103690000C20C4F202031A69012842F001021A61E7
:1036A0001A698CBF0024012422F00102032998BF6B
:1036B00044F001041A618CB904AA013822F80C0DF7
:1036C0004B1E4FF080401146ADF8083000F00CF969
:1036D00001214FF080400A4600F092F904B010BD7D
:1036E00010B5FFF765FF4FF40063C4F201031A69D8
:1036F0004FF0804042F0010201211A61BDE8104004
:1037000000F070B910B5FFF74BFF4FF40063C4F23F
:1037100001035A694FF0804042F0010200215A61D2
:10372000BDE8104000F05EB9436870B423F4702324
:103730000C680A7923F48073234343EA022343602D
:1037400085688E68CC684FF2FD73CFF6F1734A79C5
:1037500046EA040405EA030344EA030343EA420396
:1037600083600B7CC26A013B22F47002DBB242EA46
:103770000353C36270BC704721B9836823F001030F
:1037800083607047836843F001038360704700BF24
:10379000C9B222B9436823EA010141607047436816
:1037A00019434160704700BF836843F0080383609A
:1037B000704700BF8068C0F3C0007047836843F063
:1037C00004038360704700BF8068C0F380007047C7
:1037D000092970B41DD901EB41041E3C0726A640FF
:1037E00013FA04F4C568062A25EA060343EA04032B
:1037F000C3601CD90C2A26D902EB8202413A1F244D
:1038000094409140C36A23EA04020A43C26270BC36
:10381000704701EB41040726A64013FA04F405693A
:10382000062A25EA060343EA04030361E2D8013AC3
:1038300002EB82021F2494409140436B23EA04026E
:103840000A434263E3E702EB8202233A1F249440D7
:103850009140036B23EA04020A430263D7E700BFE7
:1038600021B9836823F4801383607047836843F42D
:1038700080138360704700BF6FEA112101607047B9
:1038800030B44D680C688A68CB6845EA040141EAA7
:10389000020240F6FE7542EA0303854013FA00F087
:1038A0004FF4E844C4F20004226822EA050343EA24
:1038B0000000206030BC704759B9012313FA00F0B2
:1038C0004FF4E843C4F200031A6822EA00001860CB
:1038D0007047012313FA00F04FF4E843C4F20003E9
:1038E0001A681043186070474FF43053C4F2010354
:1038F000C3EB000CDCF100034FF4505230B4C4F2BF
:103900000102048843EB0C03904208BF43F001031B
:10391000A4B283B9A0F1804CDCF100054FF48062C1
:10392000C4F2000245EB0C05904214BF2A4645F054
:103930000102002A40D04A8824F0700414434FF456
:103940008055C4F20005451B4FF4A052C4F200029A
:1039500018BF012590420CBF002205F0010222B1E0
:10396000CA8824F440741443A4B204808A888285EF
:103970000A8802859BB94FF48042C4F20102C2EB6F
:10398000000CDCF100024FF48843C4F2010342EB67
:103990000C02984214BF134642F001032BB10B7A7C
:1039A00003860123838230BC70474FF49043C4F2F6
:1039B00001039842F5D1F2E74FF40065C4F2000527
:1039C000C5EB000CDCF100054FF44062C4F20002CC
:1039D00045EB0C05904214BF2A4645F00102002A2F
:1039E000ADD0A8E731B9038823F001031B041B0CF9
:1039F0000380704703889BB243F001030380704744
:103A000022B9838923EA01018181704783899BB2AE
:103A100019438181704700BF838823F070031B0422
:103A20001B0C838083889BB241EA03038380704729
:103A3000C9430182704700BF4FF46053C4F20103D1
:103A400019884FF4605211F0800FC4F20102F7D0D0
:103A50000A2805D04FF46053C4F2010398807047E0
:103A60000D239380138813F0800FFBD04FF4605325
:103A7000C4F20103988070470021FFF7DDBF00BF4B
:103A80000FB410B582B004AC54F8040B43F63921DE
:103A9000C0F60001002223460194FDF769FE02B042
:103AA000BDE8104004B0704710B50446007830B14E
:103AB0000021FFF7C1FF14F8010F0028F8D110BD55
:103AC00010B540F20C23C2F200031B684FF40060F3
:103AD0009A694FF4007142F001029A619A69C4F246
:103AE000010042F004029A619C69182244F4804467
:103AF0009C610323FCF73AFF4FF46053C4F20103C7
:103B00009A8940F2987092B242F400529A81D0227F
:103B10001A819A89C0F6000092B242F008029A8196
:103B2000BDE81040FFF7C0BF2DE9F04146F26768DD
:103B30000646052542F210740027C6F2666896FB19
:103B4000F4F050EA07020CBF00230123012C08BF48
:103B500043F0010304FB10664BB988FB0423E41710
:103B6000013DC4EBA304EAD13846BDE8F081303012
:103B7000C0B2FFF781FF0137EFE700BF10B50C4679
:103B8000FFF792FF3A20FFF777FF2046FFF7CCFFC1
:103B900040F2D470C0F60000BDE81040FFF784BFCB
:103BA00010B5044608461146FFF7E8FF40F2B4702E
:103BB000C0F60000FFF778FF2046FFF775FF0A20E8
:103BC000FFF75AFF012010BD38B504460D461046D8
:103BD0001946FFF7D3FF40F2D870C0F60000FFF798
:103BE00063FF2846FFF760FF40F2E870C0F6000070
:103BF0002146FFF745FF012038BD00BF00BFFDE7AC
:103C000081F0004102E000BF83F0004330B54FEA8D
:103C100041044FEA430594EA050F08BF90EA020FFA
:103C20001FBF54EA000C55EA020C7FEA645C7FEA8D
:103C3000655C00F0E2804FEA5454D4EB5555B8BFB0
:103C40006D420CDD2C4480EA020281EA030382EA21
:103C5000000083EA010180EA020281EA0303362DB3
:103C600088BF30BD11F0004F4FEA01314FF4801C86
:103C70004CEA113102D0404261EB410113F0004F98
:103C80004FEA03334CEA133302D0524263EB43034F
:103C900094EA050F00F0A780A4F10104D5F1200EED
:103CA0000DDB02FA0EFC22FA05F2801841F1000148
:103CB00003FA0EF2801843FA05F359410EE0A5F11C
:103CC00020050EF1200E012A03FA0EFC28BF4CF04D
:103CD000020C43FA05F3C01851EBE37101F0004503
:103CE00007D54FF0000EDCF1000C7EEB00006EEB10
:103CF0000101B1F5801F1BD3B1F5001F0CD349089A
:103D00005FEA30004FEA3C0C04F101044FEA4452F0
:103D100012F5800F80F09A80BCF1004F08BF5FEA77
:103D2000500C50F1000041EB045141EA050130BD57
:103D30005FEA4C0C404141EB010111F4801FA4F1FA
:103D40000104E9D191F0000F04BF01460020B1FA4F
:103D500081F308BF2033A3F10B03B3F120020CDA87
:103D60000C3208DD02F1140CC2F10C0201FA0CF065
:103D700021FA02F10CE002F11402D8BFC2F1200CCA
:103D800001FA02F120FA0CFCDCBF41EA0C01904080
:103D9000E41AA2BF01EB0451294330BD6FEA0404C9
:103DA0001F3C1CDA0C340EDC04F11404C4F12002B4
:103DB00020FA04F001FA02F340EA030021FA04F3C6
:103DC00045EA030130BDC4F10C04C4F1200220FA1D
:103DD00002F001FA04F340EA0300294630BD21FA5B
:103DE00004F0294630BD94F0000F83F4801306BF21
:103DF00081F480110134013D4EE77FEA645C18BF15
:103E00007FEA655C29D094EA050F08BF90EA020FAB
:103E100005D054EA000C04BF1946104630BD91EAA3
:103E2000030F1EBF0021002030BD5FEA545C05D1A6
:103E30004000494128BF41F0004130BD14F58004E5
:103E40003CBF01F5801130BD01F0004545F0FE4159
:103E500041F470014FF0000030BD7FEA645C1ABF8E
:103E6000194610467FEA655C1CBF0B46024650EAC5
:103E7000013406BF52EA033591EA030F41F40021F1
:103E800030BD00BF90F0000F04BF0021704730B577
:103E90004FF4806404F132044FF000054FF000014C
:103EA00050E700BF90F0000F04BF0021704730B50D
:103EB0004FF4806404F1320410F0004548BF4042E2
:103EC0004FF000013EE700BF42004FEAE2014FEA37
:103ED00031014FEA02701FBF12F07F4393F07F4F12
:103EE00081F06051704792F0000F14BF93F07F4F44
:103EF000704730B54FF4607401F0004521F0004187
:103F000020E700BF50EA010208BF704730B54FF00C
:103F100000050AE050EA010208BF704730B511F011
:103F2000004502D5404261EB41014FF4806404F149
:103F300032045FEA915C3FF4DCAE4FF003025FEACB
:103F4000DC0C18BF03325FEADC0C18BF033202EB53
:103F5000DC02C2F1200300FA03FC20FA02F001FAAD
:103F600003FE40EA0E0021FA02F11444C1E600BF4C
:103F700070B54FF0FF0C4CF4E06C1CEA11541DBFFF
:103F80001CEA135594EA0C0F95EA0C0F00F0DEF8CA
:103F90002C4481EA030621EA4C5123EA4C5350EAAF
:103FA000013518BF52EA033541F4801143F4801300
:103FB00038D0A0FB02CE4FF00005E1FB02E506F091
:103FC0000042E0FB03E54FF00006E1FB03569CF0E6
:103FD000000F18BF4EF0010EA4F1FF04B6F5007FEC
:103FE00064F5407404D25FEA4E0E6D4146EB06065E
:103FF00042EAC62141EA55514FEAC52040EA5E50E7
:104000004FEACE2EB4F1FD0C88BFBCF5E06F1ED890
:10401000BEF1004F08BF5FEA500E50F1000041EBC7
:10402000045170BD06F0004646EA010140EA020074
:1040300081EA0301B4EB5C04C2BFD4EB0C0541EA96
:10404000045170BD41F480114FF0000E013C00F3AB
:10405000AB8014F1360FDEBF002001F0004170BDCF
:10406000C4F10004203C35DA0C341BDC04F11404E8
:10407000C4F1200500FA05F320FA04F001FA05F274
:1040800040EA020001F0004221F0004110EBD37041
:1040900021FA04F642EB06015EEA430E08BF20EA6D
:1040A000D37070BDC4F10C04C4F1200500FA04F310
:1040B00020FA05F001FA04F240EA020001F00041A2
:1040C00010EBD37041F100015EEA430E08BF20EA15
:1040D000D37070BDC4F1200500FA05F24EEA020E5D
:1040E00020FA04F301FA05F243EA020321FA04F08C
:1040F00001F0004121FA04F220EA020000EBD37043
:104100005EEA430E08BF20EAD37070BD94F0000F42
:104110000FD101F00046400041EB010111F4801F76
:1041200008BF013CF7D041EA060195F0000F18BF27
:10413000704703F00046520043EB030313F4801F63
:1041400008BF013DF7D043EA0603704794EA0C0F1D
:104150000CEA135518BF95EA0C0F0CD050EA410633
:1041600018BF52EA4306D1D181EA030101F00041B0
:104170004FF0000070BD50EA410606BF10461946D8
:1041800052EA430619D094EA0C0F02D150EA0136E4
:1041900013D195EA0C0F05D152EA03361CBF104625
:1041A00019460AD181EA030101F0004141F0FE41C4
:1041B00041F470014FF0000070BD41F0FE4141F448
:1041C000780170BD70B54FF0FF0C4CF4E06C1CEA48
:1041D00011541DBF1CEA135594EA0C0F95EA0C0FFD
:1041E00000F0A7F8A4EB050481EA030E52EA0335B8
:1041F0004FEA013100F088804FEA03334FF08055D9
:1042000045EA131343EA12634FEA022245EA111505
:1042100045EA10654FEA00260EF000419D4208BFB6
:10422000964244F1FD0404F5407402D25B084FEA63
:104230003202B61A65EB03055B084FEA32024FF40F
:1042400080104FF4002CB6EB020E75EB030E22BF6C
:10425000B61A754640EA0C005B084FEA3202B6EB2C
:10426000020E75EB030E22BFB61A754640EA5C00DB
:104270005B084FEA3202B6EB020E75EB030E22BF6B
:10428000B61A754640EA9C005B084FEA3202B6EB6C
:10429000020E75EB030E22BFB61A754640EADC002B
:1042A00055EA060E18D04FEA051545EA16754FEA8D
:1042B00006164FEAC30343EA52734FEAC2025FEAAB
:1042C0001C1CC0D111F4801F0BD141EA00014FF03A
:1042D00000004FF0004CB6E711F4801F04BF01430B
:1042E0000020B4F1FD0C88BFBCF5E06F3FF6AFAE27
:1042F000B5EB030C04BFB6EB020C5FEA500C50F1B7
:10430000000041EB045170BD0EF0004E4EEA113139
:1043100014EB5C04C2BFD4EB0C0541EA045170BD40
:1043200041F480114FF0000E013C90E645EA060E84
:104330008DE60CEA135594EA0C0F08BF95EA0C0FB2
:104340003FF43BAF94EA0C0F0AD150EA01347FF4FA
:1043500034AF95EA0C0F7FF425AF104619462CE7D1
:1043600095EA0C0F06D152EA03353FF4FDAE104634
:10437000194622E750EA410618BF52EA43067FF485
:10438000C5AE50EA41047FF40DAF52EA43057FF415
:10439000EBAE12E74FF0FF3C06E000BF4FF0010C20
:1043A00002E000BF4FF0010C4DF804CD4FEA410C84
:1043B0007FEA6C5C4FEA430C18BF7FEA6C5C1BD051
:1043C00001B050EA410C0CBF52EA430C91EA030FD2
:1043D00002BF90EA020F0020704710F1000F91EA2F
:1043E000030F58BF994208BF90422CBFD8176FEAFD
:1043F000E37040F0010070474FEA410C7FEA6C5CCB
:1044000002D150EA013C07D14FEA430C7FEA6C5CD1
:10441000D6D152EA033CD3D05DF8040B704700BFFD
:104420008446104662468C461946634600E000BF4B
:1044300001B5FFF7B7FF002848BF10F1000F01BD1D
:104440004DF808EDFFF7F4FF0CBF012000205DF8E8
:1044500008FB00BF4DF808EDFFF7EAFF34BF01206D
:1044600000205DF808FB00BF4DF808EDFFF7E0FF06
:1044700094BF012000205DF808FB00BF4DF808ED57
:10448000FFF7CEFF94BF012000205DF808FB00BFBE
:104490004DF808EDFFF7C4FF34BF012000205DF8A0
:1044A00008FB00BF4FEA410212F5001215D211D5E8
:1044B0006FF47873B3EB625212D94FEAC12343F021
:1044C000004343EA505311F0004F23FA02F018BFA3
:1044D000404270474FF00000704750EA013005D16C
:1044E00011F0004008BF6FF0004070474FF000002F
:1044F000704700BF0F2A0346F0B40C4630D941EA9A
:10450000000515F0030F2CD115462668103D1E60DE
:1045100066685E60A6689E60E6681034DE601033F0
:104520000F2DF2D8103A22F00F0402F00F021034CF
:10453000032A00EB0403214411D90E461D461446FC
:1045400056F8047B043C032C45F8047BF8D8043A65
:1045500022F0030402F0030204341B1909190C466B
:1045600032B1214611F8014B013A03F8014BF9D160
:10457000F0BC704710F0030F70B404460DD0002A51
:104580003FD0013A034602E0002A3AD0013A03F84C
:10459000011B13F0030F1C46F6D1032A2CD901F09E
:1045A000FF050F2A264688BF234645EA052588BF12
:1045B000164645EA054510D9103E1D605D609D60B8
:1045C000DD6010330F2EF7D8103A22F00F0602F0FC
:1045D0000F021036032A26440DD934461346043BF5
:1045E00044F8045B032BFAD8043A22F0030302F0E8
:1045F00003020433F61834461AB1013A04F8011BD9
:08460000FBD170BC704700BF44
:1046080000000000000000000000000000000000A2
:104618000000000000000000000000000000000092
:104628000000000000000000000000000000000082
:104638000000000000000000000000000000000072
:104648000000000000000000000000000000000062
:104658000000000000000000000000000000000052
:104668000000000000000000000000000000000042
:104678000000000000000000000000000000000032
:104688000000000000000000000000000000000022
:104698000000000000000000000000000000000012
:1046A8000000000000000000000000000000000002
:1046B80000000000000000000000000000000000F2
:1046C80000000000000000000000000000000000E2
:1046D80000000000000000000000000000000000D2
:1046E80000000000000000000000000000000000C2
:1046F80000000000000000000000000000000000B2
:104708000000000000000000A00300085402002080
:1047180034020020200000002000000000000000FB
:104728000038014035000000B8030008940200205A
:10473800740200202000000020000000000000009B
:104748000044004036000000D00300081402002096
:10475800B40200202000000020000000000000003B
:1047680000480040370000003F3F3F003C4E554C9A
:104778004C3E00000BF4F0F100141D1400F1F0F4AD
:104788000000000000000000000000000000000021
:104798000000000000000000000000000000000011
:1047A8000000000000000B0B0FF8E6041E04E6F8FA
:1047B8000F0B0000000000000000000000000000D7
:1047C80000000000000000000000000000000000E1
:1047D800000000000000000008F7031A2F2F1A033A
:1047E800F7000000000000000000000000000000CA
:1047F80000000000000000000000000000000000B1
:0C480800000000000000000000000000A4
:0400000508000000EF
:00000001FF
